{
  "_format": "hh3-artifact-1",
  "contractName": "AdminFacet",
  "sourceName": "contracts/facets/AdminFacet.sol",
  "abi": [
    {
      "inputs": [
        {
          "internalType": "address",
          "name": "account",
          "type": "address"
        },
        {
          "internalType": "bytes32",
          "name": "neededRole",
          "type": "bytes32"
        }
      ],
      "name": "AccessControlUnauthorizedAccount",
      "type": "error"
    },
    {
      "inputs": [
        {
          "internalType": "address",
          "name": "sender",
          "type": "address"
        },
        {
          "internalType": "uint256",
          "name": "tokenId",
          "type": "uint256"
        },
        {
          "internalType": "address",
          "name": "owner",
          "type": "address"
        }
      ],
      "name": "ERC721IncorrectOwner",
      "type": "error"
    },
    {
      "inputs": [
        {
          "internalType": "address",
          "name": "operator",
          "type": "address"
        },
        {
          "internalType": "uint256",
          "name": "tokenId",
          "type": "uint256"
        }
      ],
      "name": "ERC721InsufficientApproval",
      "type": "error"
    },
    {
      "inputs": [
        {
          "internalType": "address",
          "name": "approver",
          "type": "address"
        }
      ],
      "name": "ERC721InvalidApprover",
      "type": "error"
    },
    {
      "inputs": [
        {
          "internalType": "address",
          "name": "operator",
          "type": "address"
        }
      ],
      "name": "ERC721InvalidOperator",
      "type": "error"
    },
    {
      "inputs": [
        {
          "internalType": "address",
          "name": "owner",
          "type": "address"
        }
      ],
      "name": "ERC721InvalidOwner",
      "type": "error"
    },
    {
      "inputs": [
        {
          "internalType": "address",
          "name": "receiver",
          "type": "address"
        }
      ],
      "name": "ERC721InvalidReceiver",
      "type": "error"
    },
    {
      "inputs": [
        {
          "internalType": "address",
          "name": "sender",
          "type": "address"
        }
      ],
      "name": "ERC721InvalidSender",
      "type": "error"
    },
    {
      "inputs": [
        {
          "internalType": "uint256",
          "name": "tokenId",
          "type": "uint256"
        }
      ],
      "name": "ERC721NonexistentToken",
      "type": "error"
    },
    {
      "inputs": [
        {
          "internalType": "address",
          "name": "brandAddress",
          "type": "address"
        }
      ],
      "name": "ProvenanceBrandAlreadyExists",
      "type": "error"
    },
    {
      "inputs": [
        {
          "internalType": "address",
          "name": "brandAddress",
          "type": "address"
        },
        {
          "internalType": "enum BrandStatus",
          "name": "currentStatus",
          "type": "uint8"
        }
      ],
      "name": "ProvenanceBrandNotActive",
      "type": "error"
    },
    {
      "inputs": [
        {
          "internalType": "address",
          "name": "brandAddress",
          "type": "address"
        }
      ],
      "name": "ProvenanceBrandNotFound",
      "type": "error"
    },
    {
      "inputs": [
        {
          "internalType": "address",
          "name": "brandAddress",
          "type": "address"
        }
      ],
      "name": "ProvenanceBrandPermanentlyRevoked",
      "type": "error"
    },
    {
      "inputs": [
        {
          "internalType": "uint256",
          "name": "tokenId",
          "type": "uint256"
        },
        {
          "internalType": "enum ProductStatus",
          "name": "currentStatus",
          "type": "uint8"
        },
        {
          "internalType": "enum ProductStatus",
          "name": "requiredStatus",
          "type": "uint8"
        }
      ],
      "name": "ProvenanceInvalidProductStatus",
      "type": "error"
    },
    {
      "inputs": [
        {
          "internalType": "uint256",
          "name": "tokenId",
          "type": "uint256"
        },
        {
          "internalType": "address",
          "name": "recoveredSigner",
          "type": "address"
        },
        {
          "internalType": "address",
          "name": "expectedAuthenticator",
          "type": "address"
        }
      ],
      "name": "ProvenanceInvalidSignature",
      "type": "error"
    },
    {
      "inputs": [
        {
          "internalType": "uint256",
          "name": "tokenId",
          "type": "uint256"
        }
      ],
      "name": "ProvenanceInvalidSignatureRecovery",
      "type": "error"
    },
    {
      "inputs": [
        {
          "internalType": "uint256",
          "name": "tokenId",
          "type": "uint256"
        },
        {
          "internalType": "uint256",
          "name": "challenge",
          "type": "uint256"
        }
      ],
      "name": "ProvenanceNonceAlreadyUsed",
      "type": "error"
    },
    {
      "inputs": [
        {
          "internalType": "address",
          "name": "caller",
          "type": "address"
        },
        {
          "internalType": "address",
          "name": "retailerAddress",
          "type": "address"
        }
      ],
      "name": "ProvenanceNotAuthorizedToManageRetailer",
      "type": "error"
    },
    {
      "inputs": [
        {
          "internalType": "address",
          "name": "caller",
          "type": "address"
        },
        {
          "internalType": "uint256",
          "name": "tokenId",
          "type": "uint256"
        },
        {
          "internalType": "address",
          "name": "owner",
          "type": "address"
        }
      ],
      "name": "ProvenanceNotProductOwner",
      "type": "error"
    },
    {
      "inputs": [
        {
          "internalType": "address",
          "name": "retailerAddress",
          "type": "address"
        },
        {
          "internalType": "address",
          "name": "brandAddress",
          "type": "address"
        }
      ],
      "name": "ProvenanceParentBrandNotActive",
      "type": "error"
    },
    {
      "inputs": [
        {
          "internalType": "uint256",
          "name": "tokenId",
          "type": "uint256"
        }
      ],
      "name": "ProvenanceProductNotFound",
      "type": "error"
    },
    {
      "inputs": [
        {
          "internalType": "address",
          "name": "retailerAddress",
          "type": "address"
        }
      ],
      "name": "ProvenanceRetailerAlreadyExists",
      "type": "error"
    },
    {
      "inputs": [
        {
          "internalType": "address",
          "name": "retailerAddress",
          "type": "address"
        },
        {
          "internalType": "enum RetailerStatus",
          "name": "currentStatus",
          "type": "uint8"
        }
      ],
      "name": "ProvenanceRetailerNotActive",
      "type": "error"
    },
    {
      "inputs": [
        {
          "internalType": "address",
          "name": "retailerAddress",
          "type": "address"
        }
      ],
      "name": "ProvenanceRetailerNotFound",
      "type": "error"
    },
    {
      "inputs": [
        {
          "internalType": "address",
          "name": "retailerAddress",
          "type": "address"
        }
      ],
      "name": "ProvenanceRetailerPermanentlyTerminated",
      "type": "error"
    },
    {
      "inputs": [],
      "name": "ProvenanceZeroAddressNotAllowed",
      "type": "error"
    },
    {
      "anonymous": false,
      "inputs": [
        {
          "indexed": true,
          "internalType": "address",
          "name": "owner",
          "type": "address"
        },
        {
          "indexed": true,
          "internalType": "address",
          "name": "approved",
          "type": "address"
        },
        {
          "indexed": true,
          "internalType": "uint256",
          "name": "tokenId",
          "type": "uint256"
        }
      ],
      "name": "Approval",
      "type": "event"
    },
    {
      "anonymous": false,
      "inputs": [
        {
          "indexed": true,
          "internalType": "address",
          "name": "owner",
          "type": "address"
        },
        {
          "indexed": true,
          "internalType": "address",
          "name": "operator",
          "type": "address"
        },
        {
          "indexed": false,
          "internalType": "bool",
          "name": "approved",
          "type": "bool"
        }
      ],
      "name": "ApprovalForAll",
      "type": "event"
    },
    {
      "anonymous": false,
      "inputs": [
        {
          "indexed": true,
          "internalType": "address",
          "name": "brand",
          "type": "address"
        },
        {
          "indexed": true,
          "internalType": "address",
          "name": "consumer",
          "type": "address"
        },
        {
          "indexed": true,
          "internalType": "uint256",
          "name": "tokenId",
          "type": "uint256"
        },
        {
          "indexed": false,
          "internalType": "uint256",
          "name": "timestamp",
          "type": "uint256"
        }
      ],
      "name": "BrandFulfilledDirectOrder",
      "type": "event"
    },
    {
      "anonymous": false,
      "inputs": [
        {
          "indexed": true,
          "internalType": "address",
          "name": "brandAddress",
          "type": "address"
        },
        {
          "indexed": false,
          "internalType": "string",
          "name": "name",
          "type": "string"
        },
        {
          "indexed": false,
          "internalType": "uint256",
          "name": "timestamp",
          "type": "uint256"
        }
      ],
      "name": "BrandRegistered",
      "type": "event"
    },
    {
      "anonymous": false,
      "inputs": [
        {
          "indexed": true,
          "internalType": "address",
          "name": "brandAddress",
          "type": "address"
        },
        {
          "indexed": false,
          "internalType": "enum BrandStatus",
          "name": "status",
          "type": "uint8"
        },
        {
          "indexed": false,
          "internalType": "uint256",
          "name": "timestamp",
          "type": "uint256"
        }
      ],
      "name": "BrandStatusUpdated",
      "type": "event"
    },
    {
      "anonymous": false,
      "inputs": [
        {
          "components": [
            {
              "internalType": "address",
              "name": "facetAddress",
              "type": "address"
            },
            {
              "internalType": "enum FacetCutAction",
              "name": "action",
              "type": "uint8"
            },
            {
              "internalType": "bytes4[]",
              "name": "functionSelectors",
              "type": "bytes4[]"
            }
          ],
          "indexed": false,
          "internalType": "struct FacetCut[]",
          "name": "_diamondCut",
          "type": "tuple[]"
        },
        {
          "indexed": false,
          "internalType": "address",
          "name": "_init",
          "type": "address"
        },
        {
          "indexed": false,
          "internalType": "bytes",
          "name": "_calldata",
          "type": "bytes"
        }
      ],
      "name": "DiamondCut",
      "type": "event"
    },
    {
      "anonymous": false,
      "inputs": [
        {
          "indexed": true,
          "internalType": "address",
          "name": "brand",
          "type": "address"
        },
        {
          "indexed": true,
          "internalType": "uint256",
          "name": "tokenId",
          "type": "uint256"
        },
        {
          "indexed": false,
          "internalType": "string",
          "name": "name",
          "type": "string"
        },
        {
          "indexed": false,
          "internalType": "address",
          "name": "productAuthenticator",
          "type": "address"
        },
        {
          "indexed": false,
          "internalType": "uint256",
          "name": "timestamp",
          "type": "uint256"
        }
      ],
      "name": "ProductMinted",
      "type": "event"
    },
    {
      "anonymous": false,
      "inputs": [
        {
          "indexed": true,
          "internalType": "address",
          "name": "consumer",
          "type": "address"
        },
        {
          "indexed": true,
          "internalType": "address",
          "name": "retailer",
          "type": "address"
        },
        {
          "indexed": true,
          "internalType": "uint256",
          "name": "tokenId",
          "type": "uint256"
        },
        {
          "indexed": false,
          "internalType": "uint256",
          "name": "timestamp",
          "type": "uint256"
        }
      ],
      "name": "ProductSold",
      "type": "event"
    },
    {
      "anonymous": false,
      "inputs": [
        {
          "indexed": true,
          "internalType": "uint256",
          "name": "tokenId",
          "type": "uint256"
        },
        {
          "indexed": false,
          "internalType": "uint256",
          "name": "challenge",
          "type": "uint256"
        }
      ],
      "name": "ProductVerified",
      "type": "event"
    },
    {
      "anonymous": false,
      "inputs": [
        {
          "indexed": true,
          "internalType": "address",
          "name": "brand",
          "type": "address"
        },
        {
          "indexed": true,
          "internalType": "address",
          "name": "retailer",
          "type": "address"
        },
        {
          "indexed": false,
          "internalType": "string",
          "name": "name",
          "type": "string"
        },
        {
          "indexed": false,
          "internalType": "uint256",
          "name": "timestamp",
          "type": "uint256"
        }
      ],
      "name": "RetailerRegistered",
      "type": "event"
    },
    {
      "anonymous": false,
      "inputs": [
        {
          "indexed": true,
          "internalType": "address",
          "name": "retailer",
          "type": "address"
        },
        {
          "indexed": false,
          "internalType": "enum RetailerStatus",
          "name": "status",
          "type": "uint8"
        },
        {
          "indexed": false,
          "internalType": "uint256",
          "name": "timestamp",
          "type": "uint256"
        }
      ],
      "name": "RetailerStatusUpdated",
      "type": "event"
    },
    {
      "anonymous": false,
      "inputs": [
        {
          "indexed": true,
          "internalType": "address",
          "name": "brand",
          "type": "address"
        },
        {
          "indexed": false,
          "internalType": "uint256[]",
          "name": "tokenIds",
          "type": "uint256[]"
        },
        {
          "indexed": false,
          "internalType": "uint256",
          "name": "timestamp",
          "type": "uint256"
        }
      ],
      "name": "ReturnReceived",
      "type": "event"
    },
    {
      "anonymous": false,
      "inputs": [
        {
          "indexed": true,
          "internalType": "bytes32",
          "name": "role",
          "type": "bytes32"
        },
        {
          "indexed": true,
          "internalType": "bytes32",
          "name": "previousAdminRole",
          "type": "bytes32"
        },
        {
          "indexed": true,
          "internalType": "bytes32",
          "name": "newAdminRole",
          "type": "bytes32"
        }
      ],
      "name": "RoleAdminChanged",
      "type": "event"
    },
    {
      "anonymous": false,
      "inputs": [
        {
          "indexed": true,
          "internalType": "bytes32",
          "name": "role",
          "type": "bytes32"
        },
        {
          "indexed": true,
          "internalType": "address",
          "name": "account",
          "type": "address"
        },
        {
          "indexed": true,
          "internalType": "address",
          "name": "sender",
          "type": "address"
        }
      ],
      "name": "RoleGranted",
      "type": "event"
    },
    {
      "anonymous": false,
      "inputs": [
        {
          "indexed": true,
          "internalType": "bytes32",
          "name": "role",
          "type": "bytes32"
        },
        {
          "indexed": true,
          "internalType": "address",
          "name": "account",
          "type": "address"
        },
        {
          "indexed": true,
          "internalType": "address",
          "name": "sender",
          "type": "address"
        }
      ],
      "name": "RoleRevoked",
      "type": "event"
    },
    {
      "anonymous": false,
      "inputs": [
        {
          "indexed": true,
          "internalType": "address",
          "name": "brand",
          "type": "address"
        },
        {
          "indexed": true,
          "internalType": "address",
          "name": "retailer",
          "type": "address"
        },
        {
          "indexed": false,
          "internalType": "uint256[]",
          "name": "tokenIds",
          "type": "uint256[]"
        },
        {
          "indexed": false,
          "internalType": "uint256",
          "name": "timestamp",
          "type": "uint256"
        }
      ],
      "name": "ShipmentInitiated",
      "type": "event"
    },
    {
      "anonymous": false,
      "inputs": [
        {
          "indexed": true,
          "internalType": "address",
          "name": "retailer",
          "type": "address"
        },
        {
          "indexed": false,
          "internalType": "uint256[]",
          "name": "tokenIds",
          "type": "uint256[]"
        },
        {
          "indexed": false,
          "internalType": "uint256",
          "name": "timestamp",
          "type": "uint256"
        }
      ],
      "name": "ShipmentReceived",
      "type": "event"
    },
    {
      "anonymous": false,
      "inputs": [
        {
          "indexed": true,
          "internalType": "address",
          "name": "retailer",
          "type": "address"
        },
        {
          "indexed": true,
          "internalType": "address",
          "name": "brand",
          "type": "address"
        },
        {
          "indexed": false,
          "internalType": "uint256[]",
          "name": "tokenIds",
          "type": "uint256[]"
        },
        {
          "indexed": false,
          "internalType": "uint256",
          "name": "timestamp",
          "type": "uint256"
        }
      ],
      "name": "ShipmentReturned",
      "type": "event"
    },
    {
      "anonymous": false,
      "inputs": [
        {
          "indexed": true,
          "internalType": "address",
          "name": "from",
          "type": "address"
        },
        {
          "indexed": true,
          "internalType": "address",
          "name": "to",
          "type": "address"
        },
        {
          "indexed": true,
          "internalType": "uint256",
          "name": "tokenId",
          "type": "uint256"
        }
      ],
      "name": "Transfer",
      "type": "event"
    },
    {
      "inputs": [
        {
          "internalType": "address",
          "name": "_brandAddress",
          "type": "address"
        }
      ],
      "name": "getBrandProfile",
      "outputs": [
        {
          "components": [
            {
              "internalType": "address",
              "name": "brandAddress",
              "type": "address"
            },
            {
              "internalType": "string",
              "name": "name",
              "type": "string"
            },
            {
              "internalType": "string",
              "name": "website",
              "type": "string"
            },
            {
              "internalType": "uint256",
              "name": "registrationTimestamp",
              "type": "uint256"
            },
            {
              "internalType": "enum BrandStatus",
              "name": "status",
              "type": "uint8"
            }
          ],
          "internalType": "struct BrandProfile",
          "name": "brandProfile",
          "type": "tuple"
        }
      ],
      "stateMutability": "view",
      "type": "function"
    },
    {
      "inputs": [
        {
          "internalType": "address",
          "name": "_brandAddress",
          "type": "address"
        },
        {
          "internalType": "string",
          "name": "_name",
          "type": "string"
        },
        {
          "internalType": "string",
          "name": "_website",
          "type": "string"
        }
      ],
      "name": "registerBrand",
      "outputs": [],
      "stateMutability": "nonpayable",
      "type": "function"
    },
    {
      "inputs": [
        {
          "internalType": "address",
          "name": "_brandAddress",
          "type": "address"
        },
        {
          "internalType": "enum BrandStatus",
          "name": "_newStatus",
          "type": "uint8"
        }
      ],
      "name": "updateBrandStatus",
      "outputs": [],
      "stateMutability": "nonpayable",
      "type": "function"
    }
  ],
  "bytecode": "0x6080604052348015600e575f5ffd5b50610d058061001c5f395ff3fe608060405234801561000f575f5ffd5b506004361061003f575f3560e01c806303bf480c1461004357806320cfa53e1461005857806351e2dec314610081575b5f5ffd5b610056610051366004610955565b610094565b005b61006b6100663660046109c9565b610283565b6040516100789190610a4b565b60405180910390f35b61005661008f366004610abc565b61045d565b6100ab5f516020610c905f395f51905f5233610607565b6100e25760405163e2517d3f60e01b81523360048201525f516020610c905f395f51905f5260248201526044015b60405180910390fd5b5f516020610cb05f395f51905f526001600160a01b038416610117576040516307e40b5160e51b815260040160405180910390fd5b6101208461063d565b15849061014c57604051638ef2107f60e01b81526001600160a01b0390911660048201526024016100d9565b506040805160a0810182526001600160a01b038616815260208101859052908101839052426060820152608081015f90526001600160a01b038581165f90815260208481526040909120835181546001600160a01b031916931692909217825582015160018201906101be9082610b78565b50604082015160028201906101d39082610b78565b50606082015181600301556080820151816004015f6101000a81548160ff0219169083600381111561020757610207610a17565b021790555090505061023a7fd52b9622fe3ce468afb95246111fe2ff28de74ab22e427623dca2ad2172e5f598533610668565b836001600160a01b03167f71787320ee03bc77073cecfd7e7ac6b666653389e89213e7df55aea41266be548442604051610275929190610c33565b60405180910390a250505050565b61028b610856565b5f516020610cb05f395f51905f526102a28361063d565b6102ca57604051635dad7df160e11b81526001600160a01b03841660048201526024016100d9565b6001600160a01b038084165f9081526020838152604091829020825160a08101909352805490931682526001830180549293929184019161030a90610af4565b80601f016020809104026020016040519081016040528092919081815260200182805461033690610af4565b80156103815780601f1061035857610100808354040283529160200191610381565b820191905f5260205f20905b81548152906001019060200180831161036457829003601f168201915b5050505050815260200160028201805461039a90610af4565b80601f01602080910402602001604051908101604052809291908181526020018280546103c690610af4565b80156104115780601f106103e857610100808354040283529160200191610411565b820191905f5260205f20905b8154815290600101906020018083116103f457829003601f168201915b50505091835250506003828101546020830152600483015460409092019160ff169081111561044257610442610a17565b600381111561045357610453610a17565b9052509392505050565b6104745f516020610c905f395f51905f5233610607565b6104a65760405163e2517d3f60e01b81523360048201525f516020610c905f395f51905f5260248201526044016100d9565b5f516020610cb05f395f51905f526104bd8361063d565b6104e557604051635dad7df160e11b81526001600160a01b03841660048201526024016100d9565b60036001600160a01b0384165f9081526020839052604090206004015460ff16600381111561051657610516610a17565b0361053f5760405163c02aab3d60e01b81526001600160a01b03841660048201526024016100d9565b6001600160a01b0383165f908152602082905260409020600401805483919060ff1916600183600381111561057657610576610a17565b0217905550600382600381111561058f5761058f610a17565b036105bf576105bf7fd52b9622fe3ce468afb95246111fe2ff28de74ab22e427623dca2ad2172e5f598433610724565b826001600160a01b03167f9a1038887e201c7d71f73531ed66294809b4c259ce60369a61a9ad9d477a09e683426040516105fa929190610c54565b60405180910390a2505050565b5f9182525f516020610c705f395f51905f52602090815260408084206001600160a01b0393909316845291905290205460ff1690565b6001600160a01b03165f9081525f516020610cb05f395f51905f526020526040902060030154151590565b61067a610674846107d7565b82610819565b5f8381525f516020610c705f395f51905f52602090815260408083206001600160a01b03861684529091529020545f516020610cb05f395f51905f529060ff1661071e575f848152600b8201602090815260408083206001600160a01b0380881680865291909352818420805460ff19166001179055905191851692909187917f2f8788117e7eff1d82e926ec794901d17c78024a50270940304540a733656f0d91a45b50505050565b610730610674846107d7565b5f8381525f516020610c705f395f51905f52602090815260408083206001600160a01b03861684529091529020545f516020610cb05f395f51905f529060ff161561071e575f848152600b8201602090815260408083206001600160a01b0380881680865291909352818420805460ff19169055905191851692909187917ff6391f5c32d9c69d2a47ea670b442974b53935d1edc7fd64eb21e047a839171b91a450505050565b5f8181525f516020610c705f395f51905f5260205260408120600101545f516020610cb05f395f51905f5290801561080f5780610811565b5f5b949350505050565b6108238282610607565b6108525760405163e2517d3f60e01b81526001600160a01b0382166004820152602481018390526044016100d9565b5050565b6040518060a001604052805f6001600160a01b0316815260200160608152602001606081526020015f81526020015f600381111561089657610896610a17565b905290565b80356001600160a01b03811681146108b1575f5ffd5b919050565b634e487b7160e01b5f52604160045260245ffd5b5f82601f8301126108d9575f5ffd5b813567ffffffffffffffff8111156108f3576108f36108b6565b604051601f8201601f19908116603f0116810167ffffffffffffffff81118282101715610922576109226108b6565b604052818152838201602001851015610939575f5ffd5b816020850160208301375f918101602001919091529392505050565b5f5f5f60608486031215610967575f5ffd5b6109708461089b565b9250602084013567ffffffffffffffff81111561098b575f5ffd5b610997868287016108ca565b925050604084013567ffffffffffffffff8111156109b3575f5ffd5b6109bf868287016108ca565b9150509250925092565b5f602082840312156109d9575f5ffd5b6109e28261089b565b9392505050565b5f81518084528060208401602086015e5f602082860101526020601f19601f83011685010191505092915050565b634e487b7160e01b5f52602160045260245ffd5b60048110610a4757634e487b7160e01b5f52602160045260245ffd5b9052565b602080825282516001600160a01b03168282015282015160a060408301525f90610a7860c08401826109e9565b90506040840151601f19848303016060850152610a9582826109e9565b915050606084015160808401526080840151610ab460a0850182610a2b565b509392505050565b5f5f60408385031215610acd575f5ffd5b610ad68361089b565b9150602083013560048110610ae9575f5ffd5b809150509250929050565b600181811c90821680610b0857607f821691505b602082108103610b2657634e487b7160e01b5f52602260045260245ffd5b50919050565b601f821115610b7357805f5260205f20601f840160051c81016020851015610b515750805b601f840160051c820191505b81811015610b70575f8155600101610b5d565b50505b505050565b815167ffffffffffffffff811115610b9257610b926108b6565b610ba681610ba08454610af4565b84610b2c565b6020601f821160018114610bd8575f8315610bc15750848201515b5f19600385901b1c1916600184901b178455610b70565b5f84815260208120601f198516915b82811015610c075787850151825560209485019460019092019101610be7565b5084821015610c2457868401515f19600387901b60f8161c191681555b50505050600190811b01905550565b604081525f610c4560408301856109e9565b90508260208301529392505050565b60408101610c628285610a2b565b826020830152939250505056fe2ad3e90873cbe86f6a024e2d91b7abbabc6ce35c355c15912cb7d7df99da2366a49807205ce4d355092ef5a8a18f56e8913cf4a201fbe287825b095693c217752ad3e90873cbe86f6a024e2d91b7abbabc6ce35c355c15912cb7d7df99da235ba26469706673582212209fb82f7c5aea13b3faca639a088a6bb230fb65c011a9b59d287a049cb374dd3a64736f6c634300081c0033",
  "linkReferences": {},
  "deployedLinkReferences": {},
  "immutableReferences": {},
  "inputSourceName": "project/contracts/facets/AdminFacet.sol",
  "buildInfoId": "solc-0_8_28-263d1ed276b127b6e82e278193ef1a6845697e0d"
}