{
  "_format": "hh3-artifact-1",
  "contractName": "AccessControlFacet",
  "sourceName": "contracts/facets/AccessControlFacet.sol",
  "abi": [
    {
      "inputs": [
        {
          "internalType": "address",
          "name": "account",
          "type": "address"
        },
        {
          "internalType": "bytes32",
          "name": "neededRole",
          "type": "bytes32"
        }
      ],
      "name": "AccessControlUnauthorizedAccount",
      "type": "error"
    },
    {
      "anonymous": false,
      "inputs": [
        {
          "indexed": true,
          "internalType": "bytes32",
          "name": "role",
          "type": "bytes32"
        },
        {
          "indexed": true,
          "internalType": "address",
          "name": "account",
          "type": "address"
        },
        {
          "indexed": true,
          "internalType": "address",
          "name": "sender",
          "type": "address"
        }
      ],
      "name": "RoleGranted",
      "type": "event"
    },
    {
      "anonymous": false,
      "inputs": [
        {
          "indexed": true,
          "internalType": "bytes32",
          "name": "role",
          "type": "bytes32"
        },
        {
          "indexed": true,
          "internalType": "address",
          "name": "account",
          "type": "address"
        },
        {
          "indexed": true,
          "internalType": "address",
          "name": "sender",
          "type": "address"
        }
      ],
      "name": "RoleRevoked",
      "type": "event"
    },
    {
      "inputs": [
        {
          "internalType": "bytes32",
          "name": "role",
          "type": "bytes32"
        }
      ],
      "name": "getRoleAdmin",
      "outputs": [
        {
          "internalType": "bytes32",
          "name": "",
          "type": "bytes32"
        }
      ],
      "stateMutability": "view",
      "type": "function"
    },
    {
      "inputs": [
        {
          "internalType": "bytes32",
          "name": "role",
          "type": "bytes32"
        },
        {
          "internalType": "address",
          "name": "account",
          "type": "address"
        }
      ],
      "name": "grantRole",
      "outputs": [],
      "stateMutability": "nonpayable",
      "type": "function"
    },
    {
      "inputs": [
        {
          "internalType": "bytes32",
          "name": "role",
          "type": "bytes32"
        },
        {
          "internalType": "address",
          "name": "account",
          "type": "address"
        }
      ],
      "name": "hasRole",
      "outputs": [
        {
          "internalType": "bool",
          "name": "",
          "type": "bool"
        }
      ],
      "stateMutability": "view",
      "type": "function"
    },
    {
      "inputs": [
        {
          "internalType": "bytes32",
          "name": "role",
          "type": "bytes32"
        },
        {
          "internalType": "address",
          "name": "account",
          "type": "address"
        }
      ],
      "name": "revokeRole",
      "outputs": [],
      "stateMutability": "nonpayable",
      "type": "function"
    }
  ],
  "bytecode": "0x6080604052348015600e575f5ffd5b506104558061001c5f395ff3fe608060405234801561000f575f5ffd5b506004361061004a575f3560e01c8063248a9ca31461004e5780632f2ff15d1461007457806391d1485414610089578063d547741f146100ac575b5f5ffd5b61006161005c3660046103af565b6100bf565b6040519081526020015b60405180910390f35b6100876100823660046103c6565b6100cf565b005b61009c6100973660046103c6565b610139565b604051901515815260200161006b565b6100876100ba3660046103c6565b61014b565b5f6100c982610156565b92915050565b6100d95f336101ab565b61012a5760405162461bcd60e51b815260206004820181905260248201527f50726f76656e616e63653a20556e617574686f72697a6564206163636573737360448201526064015b60405180910390fd5b6101358282336101e1565b5050565b5f61014483836101ab565b9392505050565b6101358282336102b0565b5f8181525f5160206104005f395f51905f5260205260408120600101547f2ad3e90873cbe86f6a024e2d91b7abbabc6ce35c355c15912cb7d7df99da235b9080156101a157806101a3565b5f5b949350505050565b5f9182525f5160206104005f395f51905f52602090815260408084206001600160a01b0393909316845291905290205460ff1690565b6101f36101ed84610156565b82610376565b5f8381525f5160206104005f395f51905f52602090815260408083206001600160a01b03861684529091529020547f2ad3e90873cbe86f6a024e2d91b7abbabc6ce35c355c15912cb7d7df99da235b9060ff166102aa575f848152600b8201602090815260408083206001600160a01b0380881680865291909352818420805460ff19166001179055905191851692909187917f2f8788117e7eff1d82e926ec794901d17c78024a50270940304540a733656f0d91a45b50505050565b6102bc6101ed84610156565b5f8381525f5160206104005f395f51905f52602090815260408083206001600160a01b03861684529091529020547f2ad3e90873cbe86f6a024e2d91b7abbabc6ce35c355c15912cb7d7df99da235b9060ff16156102aa575f848152600b8201602090815260408083206001600160a01b0380881680865291909352818420805460ff19169055905191851692909187917ff6391f5c32d9c69d2a47ea670b442974b53935d1edc7fd64eb21e047a839171b91a450505050565b61038082826101ab565b6101355760405163e2517d3f60e01b81526001600160a01b038216600482015260248101839052604401610121565b5f602082840312156103bf575f5ffd5b5035919050565b5f5f604083850312156103d7575f5ffd5b8235915060208301356001600160a01b03811681146103f4575f5ffd5b80915050925092905056fe2ad3e90873cbe86f6a024e2d91b7abbabc6ce35c355c15912cb7d7df99da2366a264697066735822122023c8dddea93284212a253aec6227957cbf30923afa0a2181e4d0404a009b145964736f6c634300081c0033",
  "linkReferences": {},
  "deployedLinkReferences": {},
  "immutableReferences": {},
  "inputSourceName": "project/contracts/facets/AccessControlFacet.sol",
  "buildInfoId": "solc-0_8_28-dc72423d0ec901c450517c2df142bee55d5129e6"
}