{
  "_format": "hh3-artifact-1",
  "contractName": "ERC721Facet",
  "sourceName": "contracts/facets/ERC721Facet.sol",
  "abi": [
    {
      "inputs": [
        {
          "internalType": "address",
          "name": "owner",
          "type": "address"
        }
      ],
      "name": "ERC721InvalidOwner",
      "type": "error"
    },
    {
      "inputs": [
        {
          "internalType": "uint256",
          "name": "tokenId",
          "type": "uint256"
        }
      ],
      "name": "ERC721NonexistentToken",
      "type": "error"
    },
    {
      "inputs": [
        {
          "internalType": "address",
          "name": "owner",
          "type": "address"
        }
      ],
      "name": "balanceOf",
      "outputs": [
        {
          "internalType": "uint256",
          "name": "",
          "type": "uint256"
        }
      ],
      "stateMutability": "view",
      "type": "function"
    },
    {
      "inputs": [],
      "name": "name",
      "outputs": [
        {
          "internalType": "string",
          "name": "",
          "type": "string"
        }
      ],
      "stateMutability": "view",
      "type": "function"
    },
    {
      "inputs": [
        {
          "internalType": "uint256",
          "name": "tokenId",
          "type": "uint256"
        }
      ],
      "name": "ownerOf",
      "outputs": [
        {
          "internalType": "address",
          "name": "",
          "type": "address"
        }
      ],
      "stateMutability": "view",
      "type": "function"
    },
    {
      "inputs": [],
      "name": "symbol",
      "outputs": [
        {
          "internalType": "string",
          "name": "",
          "type": "string"
        }
      ],
      "stateMutability": "view",
      "type": "function"
    }
  ],
  "bytecode": "0x6080604052348015600e575f5ffd5b506103cf8061001c5f395ff3fe608060405234801561000f575f5ffd5b506004361061004a575f3560e01c806306fdde031461004e5780636352211e1461006c57806370a082311461009757806395d89b41146100b8575b5f5ffd5b6100566100c0565b60405161006391906102e8565b60405180910390f35b61007f61007a36600461031d565b6100cf565b6040516001600160a01b039091168152602001610063565b6100aa6100a5366004610334565b6100df565b604051908152602001610063565b6100566100e9565b60606100ca6100f3565b905090565b5f6100d9826101c6565b92915050565b5f6100d9826101d0565b60606100ca610240565b7f2ad3e90873cbe86f6a024e2d91b7abbabc6ce35c355c15912cb7d7df99da236080546060917f2ad3e90873cbe86f6a024e2d91b7abbabc6ce35c355c15912cb7d7df99da235b9161014490610361565b80601f016020809104026020016040519081016040528092919081815260200182805461017090610361565b80156101bb5780601f10610192576101008083540402835291602001916101bb565b820191905f5260205f20905b81548152906001019060200180831161019e57829003601f168201915b505050505091505090565b5f6100d982610291565b5f7f2ad3e90873cbe86f6a024e2d91b7abbabc6ce35c355c15912cb7d7df99da235b6001600160a01b038316610220576040516322718ad960e21b81525f60048201526024015b60405180910390fd5b6001600160a01b039092165f908152600890920160205250604090205490565b7f2ad3e90873cbe86f6a024e2d91b7abbabc6ce35c355c15912cb7d7df99da236180546060917f2ad3e90873cbe86f6a024e2d91b7abbabc6ce35c355c15912cb7d7df99da235b9161014490610361565b5f8181527f2ad3e90873cbe86f6a024e2d91b7abbabc6ce35c355c15912cb7d7df99da236260205260408120546001600160a01b0316806100d957604051637e27328960e01b815260048101849052602401610217565b602081525f82518060208401528060208501604085015e5f604082850101526040601f19601f83011684010191505092915050565b5f6020828403121561032d575f5ffd5b5035919050565b5f60208284031215610344575f5ffd5b81356001600160a01b038116811461035a575f5ffd5b9392505050565b600181811c9082168061037557607f821691505b60208210810361039357634e487b7160e01b5f52602260045260245ffd5b5091905056fea26469706673582212205b940ea9d0133e1be90a0804c14c5e87fd5c42c811064050d8a17966fd39996364736f6c634300081c0033",
  "linkReferences": {},
  "deployedLinkReferences": {},
  "immutableReferences": {},
  "inputSourceName": "project/contracts/facets/ERC721Facet.sol",
  "buildInfoId": "solc-0_8_28-b65c5c7ee9065cb233f3cb55018e5d11644e9092"
}