{
  "_format": "hh3-artifact-1",
  "contractName": "DemoRoleFaucet",
  "sourceName": "contracts/utils/DemoRoleFaucet.sol",
  "abi": [
    {
      "inputs": [
        {
          "internalType": "address",
          "name": "_diamondAddress",
          "type": "address"
        }
      ],
      "stateMutability": "nonpayable",
      "type": "constructor"
    },
    {
      "inputs": [],
      "name": "provenanceDiamond",
      "outputs": [
        {
          "internalType": "contract IAccessControl",
          "name": "",
          "type": "address"
        }
      ],
      "stateMutability": "view",
      "type": "function"
    },
    {
      "inputs": [],
      "name": "requestAdminRoleRole",
      "outputs": [],
      "stateMutability": "nonpayable",
      "type": "function"
    },
    {
      "inputs": [],
      "name": "requestBrandRole",
      "outputs": [],
      "stateMutability": "nonpayable",
      "type": "function"
    },
    {
      "inputs": [],
      "name": "requestRetailerRole",
      "outputs": [],
      "stateMutability": "nonpayable",
      "type": "function"
    },
    {
      "inputs": [],
      "name": "revokeAllMyRoles",
      "outputs": [],
      "stateMutability": "nonpayable",
      "type": "function"
    }
  ],
  "bytecode": "0x6080604052348015600e575f5ffd5b50604051610620380380610620833981016040819052602b91604e565b5f80546001600160a01b0319166001600160a01b03929092169190911790556079565b5f60208284031215605d575f5ffd5b81516001600160a01b03811681146072575f5ffd5b9392505050565b61059a806100865f395ff3fe608060405234801561000f575f5ffd5b5060043610610055575f3560e01c80635031fbf81461005957806358a3674114610063578063599329231461009157806373a09c8214610099578063990c279b146100a1575b5f5ffd5b6100616100a9565b005b5f54610075906001600160a01b031681565b6040516001600160a01b03909116815260200160405180910390f35b610061610132565b610061610190565b61006161019b565b6100b2336101f9565b5f54604051632f2ff15d60e01b81527f2a5f906c256a5d799494fcd066e1f6c077689de1cdb65052a1624de4bace99bf60048201523360248201526001600160a01b0390911690632f2ff15d906044015b5f604051808303815f87803b15801561011a575f5ffd5b505af115801561012c573d5f5f3e3d5ffd5b50505050565b61013b336101f9565b5f54604051632f2ff15d60e01b81527fd52b9622fe3ce468afb95246111fe2ff28de74ab22e427623dca2ad2172e5f5960048201523360248201526001600160a01b0390911690632f2ff15d90604401610103565b610199336101f9565b565b6101a4336101f9565b5f54604051632f2ff15d60e01b81527fa49807205ce4d355092ef5a8a18f56e8913cf4a201fbe287825b095693c2177560048201523360248201526001600160a01b0390911690632f2ff15d90604401610103565b5f54604051632474521560e21b81527fa49807205ce4d355092ef5a8a18f56e8913cf4a201fbe287825b095693c2177560048201526001600160a01b038381166024830152909116906391d1485490604401602060405180830381865afa158015610266573d5f5f3e3d5ffd5b505050506040513d601f19601f8201168201806040525081019061028a919061053e565b1561030f575f5460405163d547741f60e01b81527fa49807205ce4d355092ef5a8a18f56e8913cf4a201fbe287825b095693c2177560048201526001600160a01b0383811660248301529091169063d547741f906044015f604051808303815f87803b1580156102f8575f5ffd5b505af115801561030a573d5f5f3e3d5ffd5b505050505b5f54604051632474521560e21b81527fd52b9622fe3ce468afb95246111fe2ff28de74ab22e427623dca2ad2172e5f5960048201526001600160a01b038381166024830152909116906391d1485490604401602060405180830381865afa15801561037c573d5f5f3e3d5ffd5b505050506040513d601f19601f820116820180604052508101906103a0919061053e565b15610425575f5460405163d547741f60e01b81527fd52b9622fe3ce468afb95246111fe2ff28de74ab22e427623dca2ad2172e5f5960048201526001600160a01b0383811660248301529091169063d547741f906044015f604051808303815f87803b15801561040e575f5ffd5b505af1158015610420573d5f5f3e3d5ffd5b505050505b5f54604051632474521560e21b81527f2a5f906c256a5d799494fcd066e1f6c077689de1cdb65052a1624de4bace99bf60048201526001600160a01b038381166024830152909116906391d1485490604401602060405180830381865afa158015610492573d5f5f3e3d5ffd5b505050506040513d601f19601f820116820180604052508101906104b6919061053e565b1561053b575f5460405163d547741f60e01b81527f2a5f906c256a5d799494fcd066e1f6c077689de1cdb65052a1624de4bace99bf60048201526001600160a01b0383811660248301529091169063d547741f906044015f604051808303815f87803b158015610524575f5ffd5b505af1158015610536573d5f5f3e3d5ffd5b505050505b50565b5f6020828403121561054e575f5ffd5b8151801515811461055d575f5ffd5b939250505056fea2646970667358221220a2f6b3e0ef422b37bb4aa9edfcccdd2ae03da6887b9209542c47a344a5ab54f264736f6c634300081c0033",
  "linkReferences": {},
  "deployedLinkReferences": {},
  "immutableReferences": {},
  "inputSourceName": "project/contracts/utils/DemoRoleFaucet.sol",
  "buildInfoId": "solc-0_8_28-9679f138d9d7d2360300efd34d84bc1c5b167081"
}