{
  "_format": "hh3-artifact-1",
  "contractName": "RetailerFacet",
  "sourceName": "contracts/facets/RetailerFacet.sol",
  "abi": [
    {
      "inputs": [
        {
          "internalType": "address",
          "name": "account",
          "type": "address"
        },
        {
          "internalType": "bytes32",
          "name": "neededRole",
          "type": "bytes32"
        }
      ],
      "name": "AccessControlUnauthorizedAccount",
      "type": "error"
    },
    {
      "inputs": [
        {
          "internalType": "address",
          "name": "sender",
          "type": "address"
        },
        {
          "internalType": "uint256",
          "name": "tokenId",
          "type": "uint256"
        },
        {
          "internalType": "address",
          "name": "owner",
          "type": "address"
        }
      ],
      "name": "ERC721IncorrectOwner",
      "type": "error"
    },
    {
      "inputs": [
        {
          "internalType": "address",
          "name": "operator",
          "type": "address"
        },
        {
          "internalType": "uint256",
          "name": "tokenId",
          "type": "uint256"
        }
      ],
      "name": "ERC721InsufficientApproval",
      "type": "error"
    },
    {
      "inputs": [
        {
          "internalType": "address",
          "name": "approver",
          "type": "address"
        }
      ],
      "name": "ERC721InvalidApprover",
      "type": "error"
    },
    {
      "inputs": [
        {
          "internalType": "address",
          "name": "operator",
          "type": "address"
        }
      ],
      "name": "ERC721InvalidOperator",
      "type": "error"
    },
    {
      "inputs": [
        {
          "internalType": "address",
          "name": "owner",
          "type": "address"
        }
      ],
      "name": "ERC721InvalidOwner",
      "type": "error"
    },
    {
      "inputs": [
        {
          "internalType": "address",
          "name": "receiver",
          "type": "address"
        }
      ],
      "name": "ERC721InvalidReceiver",
      "type": "error"
    },
    {
      "inputs": [
        {
          "internalType": "address",
          "name": "sender",
          "type": "address"
        }
      ],
      "name": "ERC721InvalidSender",
      "type": "error"
    },
    {
      "inputs": [
        {
          "internalType": "uint256",
          "name": "tokenId",
          "type": "uint256"
        }
      ],
      "name": "ERC721NonexistentToken",
      "type": "error"
    },
    {
      "inputs": [
        {
          "internalType": "address",
          "name": "brandAddress",
          "type": "address"
        }
      ],
      "name": "ProvenanceBrandAlreadyExists",
      "type": "error"
    },
    {
      "inputs": [
        {
          "internalType": "address",
          "name": "brandAddress",
          "type": "address"
        },
        {
          "internalType": "enum BrandStatus",
          "name": "currentStatus",
          "type": "uint8"
        }
      ],
      "name": "ProvenanceBrandNotActive",
      "type": "error"
    },
    {
      "inputs": [
        {
          "internalType": "address",
          "name": "brandAddress",
          "type": "address"
        }
      ],
      "name": "ProvenanceBrandNotFound",
      "type": "error"
    },
    {
      "inputs": [
        {
          "internalType": "address",
          "name": "brandAddress",
          "type": "address"
        }
      ],
      "name": "ProvenanceBrandPermanentlyRevoked",
      "type": "error"
    },
    {
      "inputs": [
        {
          "internalType": "uint256",
          "name": "tokenId",
          "type": "uint256"
        },
        {
          "internalType": "enum ProductStatus",
          "name": "currentStatus",
          "type": "uint8"
        },
        {
          "internalType": "enum ProductStatus",
          "name": "requiredStatus",
          "type": "uint8"
        }
      ],
      "name": "ProvenanceInvalidProductStatus",
      "type": "error"
    },
    {
      "inputs": [
        {
          "internalType": "uint256",
          "name": "tokenId",
          "type": "uint256"
        },
        {
          "internalType": "address",
          "name": "recoveredSigner",
          "type": "address"
        },
        {
          "internalType": "address",
          "name": "expectedAuthenticator",
          "type": "address"
        }
      ],
      "name": "ProvenanceInvalidSignature",
      "type": "error"
    },
    {
      "inputs": [
        {
          "internalType": "uint256",
          "name": "tokenId",
          "type": "uint256"
        }
      ],
      "name": "ProvenanceInvalidSignatureRecovery",
      "type": "error"
    },
    {
      "inputs": [
        {
          "internalType": "uint256",
          "name": "tokenId",
          "type": "uint256"
        },
        {
          "internalType": "uint256",
          "name": "challenge",
          "type": "uint256"
        }
      ],
      "name": "ProvenanceNonceAlreadyUsed",
      "type": "error"
    },
    {
      "inputs": [
        {
          "internalType": "address",
          "name": "caller",
          "type": "address"
        },
        {
          "internalType": "address",
          "name": "retailerAddress",
          "type": "address"
        }
      ],
      "name": "ProvenanceNotAuthorizedToManageRetailer",
      "type": "error"
    },
    {
      "inputs": [
        {
          "internalType": "address",
          "name": "caller",
          "type": "address"
        },
        {
          "internalType": "uint256",
          "name": "tokenId",
          "type": "uint256"
        },
        {
          "internalType": "address",
          "name": "owner",
          "type": "address"
        }
      ],
      "name": "ProvenanceNotProductOwner",
      "type": "error"
    },
    {
      "inputs": [
        {
          "internalType": "address",
          "name": "retailerAddress",
          "type": "address"
        },
        {
          "internalType": "address",
          "name": "brandAddress",
          "type": "address"
        }
      ],
      "name": "ProvenanceParentBrandNotActive",
      "type": "error"
    },
    {
      "inputs": [
        {
          "internalType": "uint256",
          "name": "tokenId",
          "type": "uint256"
        }
      ],
      "name": "ProvenanceProductNotFound",
      "type": "error"
    },
    {
      "inputs": [
        {
          "internalType": "address",
          "name": "retailerAddress",
          "type": "address"
        }
      ],
      "name": "ProvenanceRetailerAlreadyExists",
      "type": "error"
    },
    {
      "inputs": [
        {
          "internalType": "address",
          "name": "retailerAddress",
          "type": "address"
        },
        {
          "internalType": "enum RetailerStatus",
          "name": "currentStatus",
          "type": "uint8"
        }
      ],
      "name": "ProvenanceRetailerNotActive",
      "type": "error"
    },
    {
      "inputs": [
        {
          "internalType": "address",
          "name": "retailerAddress",
          "type": "address"
        }
      ],
      "name": "ProvenanceRetailerNotFound",
      "type": "error"
    },
    {
      "inputs": [
        {
          "internalType": "address",
          "name": "retailerAddress",
          "type": "address"
        }
      ],
      "name": "ProvenanceRetailerPermanentlyTerminated",
      "type": "error"
    },
    {
      "inputs": [],
      "name": "ProvenanceZeroAddressNotAllowed",
      "type": "error"
    },
    {
      "anonymous": false,
      "inputs": [
        {
          "indexed": true,
          "internalType": "address",
          "name": "owner",
          "type": "address"
        },
        {
          "indexed": true,
          "internalType": "address",
          "name": "approved",
          "type": "address"
        },
        {
          "indexed": true,
          "internalType": "uint256",
          "name": "tokenId",
          "type": "uint256"
        }
      ],
      "name": "Approval",
      "type": "event"
    },
    {
      "anonymous": false,
      "inputs": [
        {
          "indexed": true,
          "internalType": "address",
          "name": "owner",
          "type": "address"
        },
        {
          "indexed": true,
          "internalType": "address",
          "name": "operator",
          "type": "address"
        },
        {
          "indexed": false,
          "internalType": "bool",
          "name": "approved",
          "type": "bool"
        }
      ],
      "name": "ApprovalForAll",
      "type": "event"
    },
    {
      "anonymous": false,
      "inputs": [
        {
          "indexed": true,
          "internalType": "address",
          "name": "brand",
          "type": "address"
        },
        {
          "indexed": true,
          "internalType": "address",
          "name": "consumer",
          "type": "address"
        },
        {
          "indexed": true,
          "internalType": "uint256",
          "name": "tokenId",
          "type": "uint256"
        },
        {
          "indexed": false,
          "internalType": "uint256",
          "name": "timestamp",
          "type": "uint256"
        }
      ],
      "name": "BrandFulfilledDirectOrder",
      "type": "event"
    },
    {
      "anonymous": false,
      "inputs": [
        {
          "indexed": true,
          "internalType": "address",
          "name": "brandAddress",
          "type": "address"
        },
        {
          "indexed": false,
          "internalType": "string",
          "name": "name",
          "type": "string"
        },
        {
          "indexed": false,
          "internalType": "uint256",
          "name": "timestamp",
          "type": "uint256"
        }
      ],
      "name": "BrandRegistered",
      "type": "event"
    },
    {
      "anonymous": false,
      "inputs": [
        {
          "indexed": true,
          "internalType": "address",
          "name": "brandAddress",
          "type": "address"
        },
        {
          "indexed": false,
          "internalType": "enum BrandStatus",
          "name": "status",
          "type": "uint8"
        },
        {
          "indexed": false,
          "internalType": "uint256",
          "name": "timestamp",
          "type": "uint256"
        }
      ],
      "name": "BrandStatusUpdated",
      "type": "event"
    },
    {
      "anonymous": false,
      "inputs": [
        {
          "components": [
            {
              "internalType": "address",
              "name": "facetAddress",
              "type": "address"
            },
            {
              "internalType": "enum FacetCutAction",
              "name": "action",
              "type": "uint8"
            },
            {
              "internalType": "bytes4[]",
              "name": "functionSelectors",
              "type": "bytes4[]"
            }
          ],
          "indexed": false,
          "internalType": "struct FacetCut[]",
          "name": "_diamondCut",
          "type": "tuple[]"
        },
        {
          "indexed": false,
          "internalType": "address",
          "name": "_init",
          "type": "address"
        },
        {
          "indexed": false,
          "internalType": "bytes",
          "name": "_calldata",
          "type": "bytes"
        }
      ],
      "name": "DiamondCut",
      "type": "event"
    },
    {
      "anonymous": false,
      "inputs": [
        {
          "indexed": true,
          "internalType": "address",
          "name": "brand",
          "type": "address"
        },
        {
          "indexed": true,
          "internalType": "uint256",
          "name": "tokenId",
          "type": "uint256"
        },
        {
          "indexed": false,
          "internalType": "string",
          "name": "name",
          "type": "string"
        },
        {
          "indexed": false,
          "internalType": "address",
          "name": "productAuthenticator",
          "type": "address"
        },
        {
          "indexed": false,
          "internalType": "uint256",
          "name": "timestamp",
          "type": "uint256"
        }
      ],
      "name": "ProductMinted",
      "type": "event"
    },
    {
      "anonymous": false,
      "inputs": [
        {
          "indexed": true,
          "internalType": "address",
          "name": "consumer",
          "type": "address"
        },
        {
          "indexed": true,
          "internalType": "address",
          "name": "retailer",
          "type": "address"
        },
        {
          "indexed": true,
          "internalType": "uint256",
          "name": "tokenId",
          "type": "uint256"
        },
        {
          "indexed": false,
          "internalType": "uint256",
          "name": "timestamp",
          "type": "uint256"
        }
      ],
      "name": "ProductSold",
      "type": "event"
    },
    {
      "anonymous": false,
      "inputs": [
        {
          "indexed": true,
          "internalType": "uint256",
          "name": "tokenId",
          "type": "uint256"
        },
        {
          "indexed": false,
          "internalType": "uint256",
          "name": "challenge",
          "type": "uint256"
        }
      ],
      "name": "ProductVerified",
      "type": "event"
    },
    {
      "anonymous": false,
      "inputs": [
        {
          "indexed": true,
          "internalType": "address",
          "name": "brand",
          "type": "address"
        },
        {
          "indexed": true,
          "internalType": "address",
          "name": "retailer",
          "type": "address"
        },
        {
          "indexed": false,
          "internalType": "string",
          "name": "name",
          "type": "string"
        },
        {
          "indexed": false,
          "internalType": "uint256",
          "name": "timestamp",
          "type": "uint256"
        }
      ],
      "name": "RetailerRegistered",
      "type": "event"
    },
    {
      "anonymous": false,
      "inputs": [
        {
          "indexed": true,
          "internalType": "address",
          "name": "retailer",
          "type": "address"
        },
        {
          "indexed": false,
          "internalType": "enum RetailerStatus",
          "name": "status",
          "type": "uint8"
        },
        {
          "indexed": false,
          "internalType": "uint256",
          "name": "timestamp",
          "type": "uint256"
        }
      ],
      "name": "RetailerStatusUpdated",
      "type": "event"
    },
    {
      "anonymous": false,
      "inputs": [
        {
          "indexed": true,
          "internalType": "address",
          "name": "brand",
          "type": "address"
        },
        {
          "indexed": false,
          "internalType": "uint256[]",
          "name": "tokenIds",
          "type": "uint256[]"
        },
        {
          "indexed": false,
          "internalType": "uint256",
          "name": "timestamp",
          "type": "uint256"
        }
      ],
      "name": "ReturnReceived",
      "type": "event"
    },
    {
      "anonymous": false,
      "inputs": [
        {
          "indexed": true,
          "internalType": "bytes32",
          "name": "role",
          "type": "bytes32"
        },
        {
          "indexed": true,
          "internalType": "bytes32",
          "name": "previousAdminRole",
          "type": "bytes32"
        },
        {
          "indexed": true,
          "internalType": "bytes32",
          "name": "newAdminRole",
          "type": "bytes32"
        }
      ],
      "name": "RoleAdminChanged",
      "type": "event"
    },
    {
      "anonymous": false,
      "inputs": [
        {
          "indexed": true,
          "internalType": "bytes32",
          "name": "role",
          "type": "bytes32"
        },
        {
          "indexed": true,
          "internalType": "address",
          "name": "account",
          "type": "address"
        },
        {
          "indexed": true,
          "internalType": "address",
          "name": "sender",
          "type": "address"
        }
      ],
      "name": "RoleGranted",
      "type": "event"
    },
    {
      "anonymous": false,
      "inputs": [
        {
          "indexed": true,
          "internalType": "bytes32",
          "name": "role",
          "type": "bytes32"
        },
        {
          "indexed": true,
          "internalType": "address",
          "name": "account",
          "type": "address"
        },
        {
          "indexed": true,
          "internalType": "address",
          "name": "sender",
          "type": "address"
        }
      ],
      "name": "RoleRevoked",
      "type": "event"
    },
    {
      "anonymous": false,
      "inputs": [
        {
          "indexed": true,
          "internalType": "address",
          "name": "brand",
          "type": "address"
        },
        {
          "indexed": true,
          "internalType": "address",
          "name": "retailer",
          "type": "address"
        },
        {
          "indexed": false,
          "internalType": "uint256[]",
          "name": "tokenIds",
          "type": "uint256[]"
        },
        {
          "indexed": false,
          "internalType": "uint256",
          "name": "timestamp",
          "type": "uint256"
        }
      ],
      "name": "ShipmentInitiated",
      "type": "event"
    },
    {
      "anonymous": false,
      "inputs": [
        {
          "indexed": true,
          "internalType": "address",
          "name": "retailer",
          "type": "address"
        },
        {
          "indexed": false,
          "internalType": "uint256[]",
          "name": "tokenIds",
          "type": "uint256[]"
        },
        {
          "indexed": false,
          "internalType": "uint256",
          "name": "timestamp",
          "type": "uint256"
        }
      ],
      "name": "ShipmentReceived",
      "type": "event"
    },
    {
      "anonymous": false,
      "inputs": [
        {
          "indexed": true,
          "internalType": "address",
          "name": "retailer",
          "type": "address"
        },
        {
          "indexed": true,
          "internalType": "address",
          "name": "brand",
          "type": "address"
        },
        {
          "indexed": false,
          "internalType": "uint256[]",
          "name": "tokenIds",
          "type": "uint256[]"
        },
        {
          "indexed": false,
          "internalType": "uint256",
          "name": "timestamp",
          "type": "uint256"
        }
      ],
      "name": "ShipmentReturned",
      "type": "event"
    },
    {
      "anonymous": false,
      "inputs": [
        {
          "indexed": true,
          "internalType": "address",
          "name": "from",
          "type": "address"
        },
        {
          "indexed": true,
          "internalType": "address",
          "name": "to",
          "type": "address"
        },
        {
          "indexed": true,
          "internalType": "uint256",
          "name": "tokenId",
          "type": "uint256"
        }
      ],
      "name": "Transfer",
      "type": "event"
    },
    {
      "inputs": [
        {
          "internalType": "uint256",
          "name": "_tokenId",
          "type": "uint256"
        },
        {
          "internalType": "address",
          "name": "_consumer",
          "type": "address"
        }
      ],
      "name": "finalizeSale",
      "outputs": [],
      "stateMutability": "nonpayable",
      "type": "function"
    },
    {
      "inputs": [
        {
          "internalType": "uint256[]",
          "name": "_tokenIds",
          "type": "uint256[]"
        }
      ],
      "name": "receiveProductShipment",
      "outputs": [],
      "stateMutability": "nonpayable",
      "type": "function"
    },
    {
      "inputs": [
        {
          "internalType": "uint256[]",
          "name": "_tokenIds",
          "type": "uint256[]"
        }
      ],
      "name": "returnProducts",
      "outputs": [],
      "stateMutability": "nonpayable",
      "type": "function"
    }
  ],
  "bytecode": "0x6080604052348015600e575f5ffd5b50610e198061001c5f395ff3fe608060405234801561000f575f5ffd5b506004361061003f575f3560e01c80630d29e64314610043578063b40604ed14610058578063b4d346be1461006b575b5f5ffd5b610056610051366004610bcc565b61007e565b005b610056610066366004610bcc565b6102bb565b610056610079366004610c94565b610451565b6100955f516020610da45f395f51905f5233610695565b6100cc5760405163e2517d3f60e01b81523360048201525f516020610da45f395f51905f5260248201526044015b60405180910390fd5b5f516020610dc45f395f51905f526100e3336106de565b61012657335f818152600183810160205260409182902001549051633519fc3960e11b815260048101929092526001600160a01b031660248201526044016100c3565b335f90815260018201602052604081206003015460ff16600281111561014e5761014e610ccd565b1461018657335f818152600183016020526040908190206003015490516301d48edd60e41b81526100c3929160ff1690600401610ce1565b5f5b8251811015610273575f8382815181106101a4576101a4610d0e565b602002602001015190505f6101b882610761565b90506001600160a01b03811633146101fb5760405163fad9e73760e01b8152336004820152602481018390526001600160a01b03821660448201526064016100c3565b5f82815260028501602052604090206005015460ff16600181600381111561022557610225610ccd565b1461024a57828160016040516329c41c4560e11b81526004016100c393929190610d36565b50505f90815260028381016020526040909120600501805460ff19169091179055600101610188565b50336001600160a01b03167f8448c83ae07888f3bc5f7da2c29db3bcb29d8d1e08200eed4bd9a31be2fbd8fa83426040516102af929190610d57565b60405180910390a25050565b6102d25f516020610da45f395f51905f5233610695565b6103045760405163e2517d3f60e01b81523360048201525f516020610da45f395f51905f5260248201526044016100c3565b335f9081527f2ad3e90873cbe86f6a024e2d91b7abbabc6ce35c355c15912cb7d7df99da235c60205260408120600101545f516020610dc45f395f51905f52916001600160a01b03909116905b83518110156103fe575f84828151811061036d5761036d610d0e565b6020908102919091018101515f8181526002808801909352604090206005015490925060ff16908160038111156103a6576103a6610ccd565b146103cb57818160026040516329c41c4560e11b81526004016100c393929190610d36565b6103d733858433610771565b505f9081526002840160205260409020600501805460ff1916600190811790915501610351565b50806001600160a01b0316336001600160a01b03167fac727a58fd95bc3b0b889b4bf3b897f79817b0ae0a4e03de882dbc870c75d58c8542604051610444929190610d57565b60405180910390a3505050565b6104685f516020610da45f395f51905f5233610695565b61049a5760405163e2517d3f60e01b81523360048201525f516020610da45f395f51905f5260248201526044016100c3565b5f516020610dc45f395f51905f526104b1336106de565b6104f457335f818152600183810160205260409182902001549051633519fc3960e11b815260048101929092526001600160a01b031660248201526044016100c3565b335f90815260018201602052604081206003015460ff16600281111561051c5761051c610ccd565b1461055457335f818152600183016020526040908190206003015490516301d48edd60e41b81526100c3929160ff1690600401610ce1565b5f61055e84610761565b90506001600160a01b03811633146105a15760405163fad9e73760e01b8152336004820152602481018590526001600160a01b03821660448201526064016100c3565b5f848152600280840160205260409091206005015460ff16908160038111156105cc576105cc610ccd565b146105f157848160026040516329c41c4560e11b81526004016100c393929190610d36565b6001600160a01b038416610618576040516307e40b5160e51b815260040160405180910390fd5b61062433858733610771565b5f85815260028401602090815260409182902060058101805460ff191660031790554260049091018190559151918252869133916001600160a01b038816917f08e9cbb33a358c9ee1df08684f52756a01eda4e0355a8de8b1900964a3f3fffe910160405180910390a45050505050565b5f9182527f2ad3e90873cbe86f6a024e2d91b7abbabc6ce35c355c15912cb7d7df99da2366602090815260408084206001600160a01b0393909316845291905290205460ff1690565b6001600160a01b038181165f9081527f2ad3e90873cbe86f6a024e2d91b7abbabc6ce35c355c15912cb7d7df99da235c602090815260408083206001908101549094168084525f516020610dc45f395f51905f5292839052908320600401549293919290919060ff16600381111561075857610758610ccd565b14949350505050565b5f61076b826107fb565b92915050565b6001600160a01b03831661079a57604051633250574960e11b81525f60048201526024016100c3565b5f6107a6848484610832565b9050846001600160a01b0316816001600160a01b0316146107f4576040516364283d7b60e01b81526001600160a01b03808716600483015260248201859052821660448201526064016100c3565b5050505050565b5f5f61080683610934565b90506001600160a01b03811661076b57604051637e27328960e01b8152600481018490526024016100c3565b5f5f516020610dc45f395f51905f528161084b85610934565b90506001600160a01b038416156108675761086781858761096d565b6001600160a01b038116156108a3576108825f865f5f6109d6565b6001600160a01b0381165f908152600883016020526040902080545f190190555b6001600160a01b038616156108d3576001600160a01b0386165f9081526008830160205260409020805460010190555b5f85815260078301602052604080822080546001600160a01b0319166001600160a01b038a811691821790925591518893918516917fddf252ad1be2c89b69c2b068fc378daa952ba7f163c4a11628f55a4df523b3ef91a495945050505050565b5f9081527f2ad3e90873cbe86f6a024e2d91b7abbabc6ce35c355c15912cb7d7df99da236260205260409020546001600160a01b031690565b610978838383610ae9565b6109d1576001600160a01b0383166109a657604051637e27328960e01b8152600481018290526024016100c3565b60405163177e802f60e01b81526001600160a01b0383166004820152602481018290526044016100c3565b505050565b5f516020610dc45f395f51905f5281806109f857506001600160a01b03831615155b15610ab9575f610a07856107fb565b90506001600160a01b03841615801590610a335750836001600160a01b0316816001600160a01b031614155b8015610a465750610a448185610b6c565b155b15610a6f5760405163a9fbf51f60e01b81526001600160a01b03851660048201526024016100c3565b8215610ab75784866001600160a01b0316826001600160a01b03167f8c5be1e5ebec7d5bd14f71427d1e84f3dd0314c0f7b2291e5b200ac8c7c3b92560405160405180910390a45b505b5f93845260090160205250506040902080546001600160a01b0319166001600160a01b0392909216919091179055565b5f6001600160a01b03831615801590610b645750826001600160a01b0316846001600160a01b03161480610b225750610b228484610b6c565b80610b6457505f8281527f2ad3e90873cbe86f6a024e2d91b7abbabc6ce35c355c15912cb7d7df99da236460205260409020546001600160a01b038481169116145b949350505050565b6001600160a01b039182165f9081527f2ad3e90873cbe86f6a024e2d91b7abbabc6ce35c355c15912cb7d7df99da23656020908152604080832093909416825291909152205460ff1690565b634e487b7160e01b5f52604160045260245ffd5b5f60208284031215610bdc575f5ffd5b813567ffffffffffffffff811115610bf2575f5ffd5b8201601f81018413610c02575f5ffd5b803567ffffffffffffffff811115610c1c57610c1c610bb8565b8060051b604051601f19603f830116810181811067ffffffffffffffff82111715610c4957610c49610bb8565b604052918252602081840181019290810187841115610c66575f5ffd5b6020850194505b83851015610c8957843580825260209586019590935001610c6d565b509695505050505050565b5f5f60408385031215610ca5575f5ffd5b8235915060208301356001600160a01b0381168114610cc2575f5ffd5b809150509250929050565b634e487b7160e01b5f52602160045260245ffd5b6001600160a01b03831681526040810160038310610d0157610d01610ccd565b8260208301529392505050565b634e487b7160e01b5f52603260045260245ffd5b60048110610d3257610d32610ccd565b9052565b83815260608101610d4a6020830185610d22565b610b646040830184610d22565b604080825283519082018190525f9060208501906060840190835b81811015610d90578351835260209384019390920191600101610d72565b505060209390930193909352509291505056fe2a5f906c256a5d799494fcd066e1f6c077689de1cdb65052a1624de4bace99bf2ad3e90873cbe86f6a024e2d91b7abbabc6ce35c355c15912cb7d7df99da235ba2646970667358221220d087798fa5eadc35cf9a5c32bf8374475cb14e8299d332d8bad54eb2a57cbe1d64736f6c634300081c0033",
  "linkReferences": {},
  "deployedLinkReferences": {},
  "immutableReferences": {},
  "inputSourceName": "project/contracts/facets/RetailerFacet.sol",
  "buildInfoId": "solc-0_8_28-e8d0261831bd61e1eaccc89f1f7389d145b8d303"
}